:100000000C944A210C9472210C9472210C9472214C
:100010000C9472210C9472210C9472210C94722114
:100020000C9472210C9472210C9426260C94952623
:100030000C9472210C9472210C9472210C947221F4
:100040000C9472210C9472210C9472210C947221E4
:100050000C9472210C9472210C9472210C948628B9
:100060000C9472210C9472210C9472210C947221C4
:100070000C9472210C9472210C9472210C947221B4
:100080000C9472210C9472210C9472210C947221A4
:100090000C9472210C9472210C9472210C94722194
:1000A0000C9472210C9472210C94722100000000B7
:1000B000003E5B4F5B3E3E6B4F6B3E1C3E7C3E1CEE
:1000C000183C7E3C181C577D571C1C5E7F5E1C0034
:1000D000183C1800FFE7C3E7FF0018241800FFE7EB
:1000E000DBE7FF30483A060E2629792926407F05AE
:1000F0000507407F05253F5A3CE73C5A7F3E1C1CC4
:1001000008081C1C3E7F14227F22145F5F005F5F83
:1001100006097F017F006689956A6060606060946F
:10012000A2FFA29408047E040810207E2010080874
:100130002A1C08081C2A08081E101010100C1E0C7F
:100140001E0C30383E3830060E3E0E060000000011
:100150000000005F00000007000700147F147F14F8
:10016000242A7F2A1223130864623649562050003D
:1001700008070300001C2241000041221C002A1C29
:100180007F1C2A08083E0808008070300008080814
:100190000808000060600020100804023E51494534
:1001A0003E00427F400072494949462141494D3352
:1001B0001814127F1027454545393C4A49493141B9
:1001C000211109073649494936464949291E000087
:1001D00014000000403400000008142241141414DC
:1001E0001414004122140802015909063E415D59C8
:1001F0004E7C1211127C7F494949363E41414122D1
:100200007F4141413E7F494949417F090909013EFA
:10021000414151737F0808087F00417F4100204021
:10022000413F017F081422417F404040407F021C33
:10023000027F7F0408107F3E4141413E7F0909094A
:10024000063E4151215E7F09192946264949493216
:1002500003017F01033F4040403F1F2040201F3FDC
:100260004038403F63140814630304780403615961
:10027000494D43007F4141410204081020004141A3
:10028000417F04020102044040404040000307084F
:100290000020545478407F2844443838444444284B
:1002A000384444287F385454541800087E090218F2
:1002B000A4A49C787F0804047800447D400020407A
:1002C000403D007F1028440000417F40007C0478BE
:1002D00004787C080404783844444438FC18242406
:1002E0001818242418FC7C08040408485454542486
:1002F00004043F44243C4040207C1C2040201C3C03
:100300004030403C44281028444C9090907C4464F9
:10031000544C44000836410000007700000041368C
:10032000080002010204023C2623263C1EA1A16112
:10033000123A4040207A3854545559215555794144
:100340002154547841215554784020545579400C1B
:100350001E527212395555555939545454593955FC
:100360005454580000457C410002457D420001453F
:100370007C40F0292429F0F0282528F07C545545AC
:10038000002054547C547C0A097F4932494949323F
:100390003248484832324A4848303A4141217A3A54
:1003A00042402078009DA0A07D39444444393D401E
:1003B00040403D3C24FF2424487E4943662B2FFCCB
:1003C0002F2BFF0929F620C0887E09032054547979
:1003D000410000447D413048484A32384040227A4A
:1003E000007A0A0A727D0D19317D2629292F2826C7
:1003F0002929292630484D402038080808080808CF
:100400000808382F10C8ACBA2F102834FA00007B27
:10041000000008142A142222142A1408950022002D
:1004200095AA005500AAAA55AA55AA000000FF00E7
:10043000101010FF00141414FF001010FF00FF1024
:1004400010F010F0141414FC001414F700FF000056
:10045000FF00FF1414F404FC141417101F10101FD5
:10046000101F1414141F00101010F0000000001FC3
:10047000101010101F10101010F010000000FF10CE
:100480001010101010101010FF10000000FF1400CA
:1004900000FF00FF00001F10170000FC04F41414FC
:1004A0001710171414F404F40000FF00F7141414C8
:1004B00014141414F700F7141414171410101F1048
:1004C0001F141414F4141010F010F000001F101F6B
:1004D0000000001F14000000FC140000F010F010D9
:1004E00010FF10FF141414FF141010101F00000050
:1004F00000F010FFFFFFFFFFF0F0F0F0F0FFFFFF54
:100500000000000000FFFF0F0F0F0F0F38444438AA
:10051000447C2A2A3E147E02020606027E027E02E5
:1005200063554941633844443C04407E201E200604
:10053000027E020299A5E7A5991C2A492A1C4C7241
:1005400001724C304A4D4D303048784830BC625AC8
:10055000463D3E494949007E0101017E2A2A2A2A58
:100560002A44445F444440514A444040444A514034
:100570000000FF0103E080FF000008086B6B0836F5
:1005800012362436060F090F060000181800000066
:100590001010003040FF0101001F01011E00191D55
:1005A0001712003C3C3C3C0000000000080B00021D
:1005B00002020100090400000102020000052400FB
:1005C000100105240101010424020605240600018E
:1005D0000705810310004009040100020A00000021
:1005E00007050202400000070583024000000403E3
:1005F000090412010002EF0201404123368000018C
:100600000102030141726475696E6F204C4C430016
:1006100041424C3131303600F0F89C8E8783878E12
:100620009CF8F00000FEFF0303030303070EFCF831
:100630000000FEFF0303030303070EFCF80000FFA6
:10064000FF00000000000000FFFF0000FEFF8383AA
:10065000838383C7EE7C380000F8FC0E0703030396
:10066000070EFCF800003F7FE0C08080C0E07F3FC5
:10067000FFFF01010101010101FFFF0000FFFF0C6D
:100680000C0C0C1C3E77E3C100007FFFC0C0C0C053
:10069000C0E0703F1F00001F3F70E0C0C0C0E070AE
:1006A0003F1F00007FFFC1C1C1C1C1E3773E1C00F5
:1006B000001F3F70E0C0C0C0E0703F1F000000009E
:1006C0000001FFFF010000008D14A1C881CFD9F106
:1006D00002AF5072657373204120616E64206173B4
:1006E0006B206D652E2E2E008040AA55AA55AA5566
:1006F000AA55AA55AA55AA55AA55AA55AA55AA5502
:10070000AA55AA55AA55AA55AA55AA55AA55AA55F1
:10071000AA55AA55AA55AA552A152A150A150A0531
:100720000A05020502050205020502050A050A1569
:100730000A152A152A55AA55AA55AA55AA55AA55E1
:10074000AA55AA55AA55AA55AA55AA55AA55AA55B1
:10075000AA55AA55AA55AA55AA55AA55AA55AA55A1
:10076000AA55AA55AA55AA55AA55AA55AA55AA5591
:10077000AA55AA55AA55AA55AA55AA55AA55AA5581
:10078000AA55AA55AA55AA55AA55AA55AA55AA5571
:100790006A150A050281C0E0F0F8F8FC3C3C3E3ED8
:1007A0003E3E3E3EFEFCFCFCF8F8F0E0C08000005F
:1007B000000000000000000102050A152A55AA5594
:1007C000AA55AA55AA55AA55AA55AA55AA55AA5531
:1007D000AA55AA55AA55AA55AA55AA55AA55AA5521
:1007E000AA55AA55AA55AA55AA55AA55AA55AA5511
:1007F000AA55AA55AA55AA55AA55AA55AA55AA5501
:10080000AA55AA55AA55AA55AA55AA55AA1502002D
:10081000000000F0FEFFFFFFFFFFFFFF00001EDFF4
:10082000DFDF0000FFFFFFFFFFFFFFFFFFFFFEF026
:1008300000000000000000000000000000000215A1
:10084000AA55AA55AA55AA55AA55AA55AA55AA55B0
:10085000AA55AA55AA55AA55AA55AA55AA55AA55A0
:10086000AA55AA55AA55AA55AA55AA55AA55AA5590
:10087000AA55AA55AA55AA55AA55AA55AA55AA5580
:10088000AA55AA55AA55AA55AA55AA55000000006E
:10089000000000073FFFFFFFFFFFFFFFE0E0E7E78B
:1008A000E3E3E0E0FFFFFFFFFFFFFFFFFFFF3F0786
:1008B0000000000000000000000000000000000038
:1008C0000055AA55AA55AA55AA55AA55AA55AA55DA
:1008D000AA55AA55AA55AA55AA55AA55AA55AA5520
:1008E000AA55AA55AA55AA55AA55AA55AA55AA5510
:1008F000AA55AA55AA55AA55AA55AA55AA55AA5500
:10090000AA55AA55AA55AA55AA55AA55A840000005
:100910000000000000000103070F0F1F1F1F3F3FD3
:100920003F3F3F3F3F1F1F1F0F0F07030100000006
:100930000000000000000000000000000000004077
:10094000A855AA55AA55AA55AA55AA55AA55AA55B1
:10095000AA55AA55AA55AA55AA55AA55AA55AA559F
:10096000AA55AA55AA55AA55AA55AA55AA55AA558F
:10097000AA55AA55AA55AA55AA55AA55AA55AA557F
:10098000AA55AA55AA55AA55AA55AA55AA55AA5074
:10099000A0408000000000000000000000000000F7
:1009A0000000000000000000000000000000000047
:1009B000000000000000000000008040A050AA5588
:1009C000AA55AA55AA55AA55AA55AA55AA55AA552F
:1009D000AA55AA55AA55AA55AA55AA55AA55AA551F
:1009E000AA55AA55AA55AA55AA55AA55AA55AA550F
:1009F000AA55AA55AA55AA55AA55AA55AA55AA55FF
:100A0000AA55AA55AA55AA55AA55AA55AA55AA55EE
:100A1000AA55AA55AA54A850A040A04080408000E2
:100A20008000000000000000000000008000804006
:100A30008040A040A050A854AA55AA55AA55AA552E
:100A4000AA55AA55AA55AA55AA55AA55AA55AA55AE
:100A5000AA55AA55AA55AA55AA55AA55AA55AA559E
:100A6000AA55AA55AA55AA55AA550A050A050A055E
:100A70000A050A050A050A050A050A050A050A05FE
:100A80000A050A050A050A050A050A050A050A05EE
:100A90000A050A050A050A050A050A050A050A05DE
:100AA0000A050A050A050A050A050A050A050A05CE
:100AB0000A050A050A050A050A050A050A050A05BE
:100AC0000A050A050A050A050A050A050A050A05AE
:100AD0000A050A050A050A050A050A050A050A059E
:100AE0000A050A050A050A050A05596F75206D6190
:100AF000792072656C79206F6E2069742E005965BB
:100B0000732C20646566696E6974656C792E005972
:100B100065732E00576974686F7574206120646F67
:100B20007562742E005665727920646F7562746602
:100B3000756C2E005369676E7320706F696E742038
:100B4000746F207965732E005265706C792068612E
:100B50007A792C2074727920616761696E2E004F5A
:100B600075746C6F6F6B20676F6F642E004F7574B8
:100B70006C6F6F6B206E6F7420736F20676F6F6484
:100B80002E004D7920736F757263657320736179E0
:100B9000206E6F2E004D79207265706C792069731C
:100BA000206E6F2E004D6F7374206C696B656C79CD
:100BB0002E00497420697320646563696465646C00
:100BC0007920736F2E0049742069732063657274F5
:100BD00061696E2E00446F6E7420636F756E7420B1
:100BE0006F6E2069742E00436F6E63656E74726160
:100BF0007465200A20202020202020616E6420615E
:100C0000736B20616761696E2E0043616E6E6F7455
:100C10002070726564696374200A202020202020DF
:100C2000202020202020206E6F772E0042657474D3
:100C30006572206E6F742074656C6C0A2020202011
:100C40002020796F75206E6F772E0041736B2061C5
:100C50006761696E206C617465722E004173204972
:100C6000207365652069742E2E2E207965732E0001
:100C700080400000000000000000000000000000B4
:100C80000000000000000000000000000000000064
:100C90000000000000000000000000000000000054
:100CA0000000000000000000000000000000000044
:100CB0000000000000000000000000000000000034
:100CC0000000000000000000000000000000000024
:100CD0000000000000000000000000000000000014
:100CE0000000000000000000000000000000000004
:100CF00000000000000000000000000000000000F4
:100D0000000000000000C0000000008040408000A3
:100D10008040408000C04040800040C04000C08013
:100D200000C00080404000000000C0000000C00083
:100D30008040408000C00000C000C04040800000F3
:100D400000C040404000C00000C0004040C04040E3
:100D500000C00000C000C040408000C040404000D3
:100D60000000000000000000000000000000000083
:100D70000000000000000000000000000000000073
:100D80000000000000000704040400030404030042
:100D9000070101070007040403000407040007001B
:100DA0000107000304050300000000010701000023
:100DB0000304040300030404030007010304000008
:100DC0000007010100000304040300000007000005
:100DD00000030404030007010304000705050400E1
:100DE0000000000000000000000000000000000003
:100DF000000000000000000000000000C0E0F0B0B3
:100E000058B85CBC5CBC5CBC5CBC5CBC5CBC5CBC2A
:100E10005CBC5CBC5CBC5CBC5CBC5CBC5CBC5CBC12
:100E20005CBC5CBC5CBC5CBC5CBC5CBC5CBC5CBC02
:100E30005CBC5CBC5CBC5CBC5CBC5CBC5CBC5CBCF2
:100E40005CBC5CBC5CBC5CBC5CBC5CBC5CBC5CBCE2
:100E50005CBC5CBC5CBC5CBC5CBC5CBC5CBC5CBCD2
:100E60005CBC5CBC58B850F0E0C000000000000062
:100E70000000000000000000000000001F3F7F6A2B
:100E8000D5EAD5EAD5EAD5EAD5EAD5EAD5EAD5EA6A
:100E9000D5EAD5EAD5EAD5EAD5EAD5EAD5EAD5EA5A
:100EA000D5EAD5EAD5EAD5EAD5EAD5EAD5EAD5EA4A
:100EB000D5EAD5EAD5EAD5EAD5EAD5EAD5EAD5EA3A
:100EC000D5EAD5EAD5EAD5EAD5EAD5EAD5EAD5EA2A
:100ED000D5EAD5EAD5EAD5EAD5EAD5EAD5EAD5EA1A
:100EE000D5EAD5EAD5EA557F3F1F00000000000093
:100EF00000000000000000000000000000000000F2
:100F000000000101010101010101010101010101D3
:100F100001010101010101010101010101010101C1
:100F200001010101010101010101010101010101B1
:100F300001010101010101010101010101010101A1
:100F40000101010101010101010101010101010191
:100F50000101010101010101010101010101010181
:100F6000010101010000000000000000000000007D
:100F70000000000000000000000000000000000071
:100F80000000000000000000000000000000000061
:100F90000000000000000000000000000000000051
:100FA0000000000000000000000000000000000041
:100FB0000000000000000000000000000000000031
:100FC0000000000000000000000000000000000021
:100FD0000000000000000000000000000000000011
:100FE0000000000000000000000000000000000001
:100FF00000000000000000000000000000000000F1
:1010000000000000000000000000000000000000E0
:1010100000000000000000000000000000000000D0
:1010200000000000000000000000000000000000C0
:1010300000000000000000000000000000000000B0
:1010400000000000000000000000000000000000A0
:101050000000000000000000000000000000000090
:101060000000000000000000000000000000000080
:1010700000008040000000000000000000000000B0
:101080000000000000000000000000000000000060
:101090000000000000000000000000000000000050
:1010A0000000000000000000000000000000000040
:1010B0000000000000000000000000000000000030
:1010C0000000000000000000000000000000000020
:1010D0000000000000000000000000000000000010
:1010E0000000000000000000000000000000000000
:1010F00000000000000000000000000000000000F0
:101100000000000000000000C0000000008040401F
:1011100080008040408000C04040800040C04000CF
:10112000C08000C00080404000000000C0000000FF
:10113000C0008040408000C00000C000C04040802F
:10114000000000C040404000C00000C0004040C05F
:10115000404000C00000C000C040408000C040408F
:10116000400000000000000000000000000000003F
:10117000000000000000000000000000000000006F
:101180000000000000000000070404040003040441
:10119000030007010107000704040300040704001B
:1011A0000700010700030405030000000001070118
:1011B0000000030404030003040403000701030404
:1011C0000000000701010000030404030000000701
:1011D00000000003040403000701030400070505E1
:1011E00004000000000000000000000000000000FB
:1011F0000000000000000000000000000000C0E04F
:10120000F0B058B85CBC5CBC5CBC5CBC5CBC5CBC9E
:101210005CBC5CBC5CBC5CBC5CBC5CBC5CBC5CBC0E
:101220005CBC5CBC5CBC5CBC5CBC5CBC5CBC5CBCFE
:101230005CBC5CBC5CBC5CBC5CBC5CBC5CBC5CBCEE
:101240005CBC5CBC5CBC5CBC5CBC5CBC5CBC5CBCDE
:101250005CBC5CBC5CBC5CBC5CBC5CBC5CBC5CBCCE
:101260005CBC1C1C1C1C181810F0E0C00000000026
:1012700000000000000000000000000000001F3F10
:101280007F6AD5EAD5EAD5EAD5EAD5EAD5EAD5EA3C
:10129000D5EAD5EAD5EAD5EAD5EAD5EAD5EAD5EA56
:1012A000D5EAD5EAD5EAD5EAD5EAD5EAD5EAD5EA46
:1012B000D5EAD5EAD5EAD5EAD5EAD5EAD5EAD5EA36
:1012C000D5EAD5EAD5EAD5EAD5EAD5EAD5EAD5EA26
:1012D000D5EAD5EAD5EAD5EAD5EAD5EAD5EAD5EA16
:1012E000D5EAD0C0C0C0C0C0407F3F1F0000000092
:1012F00000000000000000000000000000000000EE
:1013000000000000010101010101010101010101D1
:1013100001010101010101010101010101010101BD
:1013200001010101010101010101010101010101AD
:10133000010101010101010101010101010101019D
:10134000010101010101010101010101010101018D
:10135000010101010101010101010101010101017D
:101360000101010101010000000000000000000077
:10137000000000000000000000000000000000006D
:10138000000000000000000000000000000000005D
:10139000000000000000000000000000000000004D
:1013A000000000000000000000000000000000003D
:1013B000000000000000000000000000000000002D
:1013C000000000000000000000000000000000001D
:1013D000000000000000000000000000000000000D
:1013E00000000000000000000000000000000000FD
:1013F00000000000000000000000000000000000ED
:1014000000000000000000000000000000000000DC
:1014100000000000000000000000000000000000CC
:1014200000000000000000000000000000000000BC
:1014300000000000000000000000000000000000AC
:10144000000000000000000000000000000000009C
:10145000000000000000000000000000000000008C
:10146000000000000000000000000000000000007C
:1014700000000000804000000000000000000000AC
:10148000000000000000000000000000000000005C
:10149000000000000000000000000000000000004C
:1014A000000000000000000000000000000000003C
:1014B000000000000000000000000000000000002C
:1014C000000000000000000000000000000000001C
:1014D000000000000000000000000000000000000C
:1014E00000000000000000000000000000000000FC
:1014F00000000000000000000000000000000000EC
:1015000000000000000000000000C000000000809B
:10151000404080008040408000C04040800040C08B
:101520004000C08000C00080404000000000C000BB
:101530000000C0008040408000C00000C000C040EB
:101540004080000000C040404000C00000C000409B
:1015500040C0404000C00000C000C040408000C00B
:1015600040404000000000000000000000000000BB
:10157000000000000000000000000000000000006B
:101580000000000000000000000007040404000345
:101590000404030007010107000704040300040713
:1015A0000400070001070003040503000000000118
:1015B00007010000030404030003040403000701FF
:1015C00003040000000701010000030404030000FD
:1015D00000070000000304040300070103040007E0
:1015E00005050400000000000000000000000000ED
:1015F00000000000000000000000000000000000EB
:10160000C0E0F0B058B85CBC5CBC5CBC5CBC5CBC12
:101610005CBC5CBC5CBC5CBC5CBC5CBC5CBC5CBC0A
:101620005CBC5CBC5CBC5CBC5CBC5CBC5CBC5CBCFA
:101630005CBC5CBC5CBC5CBC5CBC5CBC5CBC5CBCEA
:101640005CBC5CBC5CBC5CBC5CBC5CBC5CBC5CBCDA
:101650005CBC5CBC5CBC5CBC5CBC5CBC5CBC5CBCCA
:101660005C1C1C1C1C1C1C1C181810F0E0C000008A
:10167000000000000000000000000000000000006A
:101680001F3F7F6AD5EAD5EAD5EAD5EAD5EAD5EA99
:10169000D5EAD5EAD5EAD5EAD5EAD5EAD5EAD5EA52
:1016A000D5EAD5EAD5EAD5EAD5EAD5EAD5EAD5EA42
:1016B000D5EAD5EAD5EAD5EAD5EAD5EAD5EAD5EA32
:1016C000D5EAD5EAD5EAD5EAD5EAD5EAD5EAD5EA22
:1016D000D5EAD5EAD5EAD5EAD5EAD5EAD5EAD5EA12
:1016E000D5C0C0C0C0C0C0C0C0C0407F3F1F000048
:1016F00000000000000000000000000000000000EA
:1017000000000000000001010101010101010101CF
:1017100001010101010101010101010101010101B9
:1017200001010101010101010101010101010101A9
:101730000101010101010101010101010101010199
:101740000101010101010101010101010101010189
:101750000101010101010101010101010101010179
:101760000101010101010101000000000000000071
:101770000000000000000000000000000000000069
:101780000000000000000000000000000000000059
:101790000000000000000000000000000000000049
:1017A0000000000000000000000000000000000039
:1017B0000000000000000000000000000000000029
:1017C0000000000000000000000000000000000019
:1017D0000000000000000000000000000000000009
:1017E00000000000000000000000000000000000F9
:1017F00000000000000000000000000000000000E9
:1018000000000000000000000000000000000000D8
:1018100000000000000000000000000000000000C8
:1018200000000000000000000000000000000000B8
:1018300000000000000000000000000000000000A8
:101840000000000000000000000000000000000098
:101850000000000000000000000000000000000088
:101860000000000000000000000000000000000078
:1018700000000000000080400000000000000000A8
:101880000000000000000000000000000000000058
:101890000000000000000000000000000000000048
:1018A0000000000000000000000000000000000038
:1018B0000000000000000000000000000000000028
:1018C0000000000000000000000000000000000018
:1018D0000000000000000000000000000000000008
:1018E00000000000000000000000000000000000F8
:1018F00000000000000000000000000000000000E8
:10190000000000000000000000000000C000000017
:101910000080404080008040408000C04040800007
:1019200040C04000C08000C0008040400000000077
:10193000C0000000C0008040408000C00000C00027
:10194000C0404080000000C040404000C00000C0D7
:10195000004040C0404000C00000C000C040408087
:1019600000C04040400000000000000000000000F7
:101970000000000000000000000000000000000067
:101980000000000000000000000000000704040444
:101990000003040403000701010700070404030017
:1019A000040704000700010700030405030000000A
:1019B0000001070100000304040300030404030002
:1019C00007010304000000070101000003040403F1
:1019D00000000007000000030404030007010304E3
:1019E00000070505040000000000000000000000E2
:1019F00000000000000000000000000000000000E7
:101A00000000C0E0F0B058B85CBC5CBC5CBC5CBC26
:101A10005CBC5CBC5CBC5CBC5CBC5CBC5CBC5CBC06
:101A20005CBC5CBC5CBC5CBC5CBC5CBC5CBC5CBCF6
:101A30005CBC5CBC5CBC5CBC5CBC5CBC5CBC5CBCE6
:101A40005CBC5CBC5CBC5CBC5CBC5CBC5CBC5CBCD6
:101A50005CBC5CBC5CBC5CBC5CBC5CBC1C1C1C1C86
:101A60001C1C1C1C1C1C1C1C1C1C181810F0E0C08E
:101A70000000000000000000000000000000000066
:101A800000001F3F7F6AD5EAD5EAD5EAD5EAD5EA54
:101A9000D5EAD5EAD5EAD5EAD5EAD5EAD5EAD5EA4E
:101AA000D5EAD5EAD5EAD5EAD5EAD5EAD5EAD5EA3E
:101AB000D5EAD5EAD5EAD5EAD5EAD5EAD5EAD5EA2E
:101AC000D5EAD5EAD5EAD5EAD5EAD5EAD5EAD5EA1E
:101AD000D5EAD5EAD5EAD5EAD5EAD5EAC0C0C0C08C
:101AE000C0C0C0C0C0C0C0C0C0C0C0C0407F3F1FD9
:101AF00000000000000000000000000000000000E6
:101B000000000000000000000101010101010101CD
:101B100001010101010101010101010101010101B5
:101B200001010101010101010101010101010101A5
:101B30000101010101010101010101010101010195
:101B40000101010101010101010101010101010185
:101B50000101010101010101010101010101010175
:101B6000010101010101010101010000000000006B
:101B70000000000000000000000000000000000065
:101B80000000000000000000000000000000000055
:101B90000000000000000000000000000000000045
:101BA0000000000000000000000000000000000035
:101BB0000000000000000000000000000000000025
:101BC0000000000000000000000000000000000015
:101BD0000000000000000000000000000000000005
:101BE00000000000000000000000000000000000F5
:101BF00000000000000000000000000000000000E5
:101C000000000000000000000000000000000000D4
:101C100000000000000000000000000000000000C4
:101C200000000000000000000000000000000000B4
:101C300000000000000000000000000000000000A4
:101C40000000000000000000000000000000000094
:101C50000000000000000000000000000000000084
:101C60000000000000000000000000000000000074
:101C700000000000000000008040000000000000A4
:101C80000000000000000000000000000000000054
:101C90000000000000000000000000000000000044
:101CA0000000000000000000000000000000000034
:101CB0000000000000000000000000000000000024
:101CC0000000000000000000000000000000000014
:101CD0000000000000000000000000000000000004
:101CE00000000000000000000000000000000000F4
:101CF00000000000000000000000000000000000E4
:101D00000000000000000000000000000000C00013
:101D100000000080404080008040408000C0404083
:101D2000800040C04000C08000C0008040400000F3
:101D30000000C0000000C0008040408000C00000E3
:101D4000C000C0404080000000C040404000C000D3
:101D500000C0004040C0404000C00000C000C04083
:101D6000408000C040404000000000000000000033
:101D70000000000000000000000000000000000063
:101D80000000000000000000000000000000070448
:101D9000040400030404030007010107000704040E
:101DA0000300040704000700010700030405030003
:101DB0000000000107010000030404030003040401
:101DC00003000701030400000007010100000304F1
:101DD00004030000000700000003040403000701DF
:101DE00003040007050504000000000000000000D7
:101DF00000000000000000000000000000000000E3
:101E000000000000C0E0F0B058B85CBC5CBC5CBC3A
:101E10005CBC5CBC5CBC5CBC5CBC5CBC5CBC5CBC02
:101E20005CBC5CBC5CBC5CBC5CBC5CBC5CBC5CBCF2
:101E30005CBC5CBC5CBC5CBC5CBC5CBC5CBC5CBCE2
:101E40005CBC5CBC5CBC5CBC5CBC5CBC5CBC5CBCD2
:101E50005CBC1C1C1C1C1C1C1C1C1C1C1C1C1C1CE2
:101E60001C1C1C1C1C1C1C1C1C1C1C1C181810F0F2
:101E7000E0C00000000000000000000000000000C2
:101E8000000000001F3F7F6AD5EAD5EAD5EAD5EA0F
:101E9000D5EAD5EAD5EAD5EAD5EAD5EAD5EAD5EA4A
:101EA000D5EAD5EAD5EAD5EAD5EAD5EAD5EAD5EA3A
:101EB000D5EAD5EAD5EAD5EAD5EAD5EAD5EAD5EA2A
:101EC000D5EAD5EAD5EAD5EAD5EAD5EAD5EAD5EA1A
:101ED000D5EAC0C0C0C0C0C0C0C0C0C0C0C0C0C0C3
:101EE000C0C0C0C0C0C0C0C0C0C0C0C0C0C0407FB3
:101EF0003F1F000000000000000000000000000084
:101F000000000000000000000000010101010101CB
:101F100001010101010101010101010101010101B1
:101F200001010101010101010101010101010101A1
:101F30000101010101010101010101010101010191
:101F40000101010101010101010101010101010181
:101F50000101010101010101010101010101010171
:101F60000101010101010101010101010000000065
:101F70000000000000000000000000000000000061
:101F80000000000000000000000000000000000051
:101F90000000000000000000000000000000000041
:101FA0000000000000000000000000000000000031
:101FB0000000000000000000000000000000000021
:101FC0000000000000000000000000000000000011
:101FD0000000000000000000000000000000000001
:101FE00000000000000000000000000000000000F1
:101FF00000000000000000000000000000000000E1
:1020000000000000000000000000000000000000D0
:1020100000000000000000000000000000000000C0
:1020200000000000000000000000000000000000B0
:1020300000000000000000000000000000000000A0
:102040000000000000000000000000000000000090
:102050000000000000000000000000000000000080
:102060000000000000000000000000000000000070
:1020700000000000000000000000804000000000A0
:102080000000000000000000000000000000000050
:102090000000000000000000000000000000000040
:1020A0000000000000000000000000000000000030
:1020B0000000000000000000000000000000000020
:1020C0000000000000000000000000000000000010
:1020D0000000000000000000000000000000000000
:1020E00000000000000000000000000000000000F0
:1020F00000000000000000000000000000000000E0
:1021000000000000000000000000000000000000CF
:10211000C00000000080404080008040408000C03F
:102120004040800040C04000C08000C0008040406F
:1021300000000000C0000000C0008040408000C0DF
:102140000000C000C0404080000000C0404040008F
:10215000C00000C0004040C0404000C00000C000BF
:10216000C040408000C0404040000000000000002F
:10217000000000000000000000000000000000005F
:10218000000000000000000000000000000000004F
:102190000704040400030404030007010107000707
:1021A00004040300040704000700010700030405FA
:1021B0000300000000010701000003040403000302
:1021C00004040300070103040000000701010000EC
:1021D00003040403000000070000000304040300DC
:1021E00007010304000705050400000000000000CB
:1021F00000000000000000000000000000000000DF
:10220000000000000000C0E0F0B058B85CBC5CBC4E
:102210005CBC5CBC5CBC5CBC5CBC5CBC5CBC5CBCFE
:102220005CBC5CBC5CBC5CBC5CBC5CBC5CBC5CBCEE
:102230005CBC5CBC5CBC5CBC5CBC5CBC5CBC5CBCDE
:102240005CBC1C1C1C1C1C1C1C1C1C1C1C1C1C1CEE
:102250001C1C1C1C1C1C1C1C1C1C1C1C1C1C1C1CBE
:102260001C1C1C1C1C1C1C1C1C1C1C1C1C1C1818B6
:1022700010F0E0C0000000000000000000000000BE
:102280000000000000001F3F7F6AD5EAD5EAD5EACA
:10229000D5EAD5EAD5EAD5EAD5EAD5EAD5EAD5EA46
:1022A000D5EAD5EAD5EAD5EAD5EAD5EAD5EAD5EA36
:1022B000D5EAD5EAD5EAD5EAD5EAD5EAD5EAD5EA26
:1022C000D5EAC0C0C0C0C0C0C0C0C0C0C0C0C0C0CF
:1022D000C0C0C0C0C0C0C0C0C0C0C0C0C0C0C0C0FE
:1022E000C0C0C0C0C0C0C0C0C0C0C0C0C0C0C0C0EE
:1022F000407F3F1F000000000000000000000000C1
:1023000000000000000000000000000001010101C9
:1023100001010101010101010101010101010101AD
:10232000010101010101010101010101010101019D
:10233000010101010101010101010101010101018D
:10234000010101010101010101010101010101017D
:10235000010101010101010101010101010101016D
:10236000010101010101010101010101010100005F
:10237000000000000000000000000000000000005D
:10238000000000000000000000000000000000004D
:10239000000000000000000000000000000000003D
:1023A000000000000000000000000000000000002D
:1023B000000000000000000000000000000000001D
:1023C000000000000000000000000000000000000D
:1023D00000000000000000000000000000000000FD
:1023E00000000000000000000000000000000000ED
:1023F00000000000000000000000000000000000DD
:1024000000000000000000000000000000000000CC
:1024100000000000000000000000000000000000BC
:1024200000000000000000000000000000000000AC
:10243000000000000000000000000000000000009C
:10244000000000000000000000000000000000008C
:10245000000000000000000000000000000000007C
:10246000000000000000000000000000000000006C
:10247000000000000000000000000000804000009C
:10248000000000000000000000000000000000004C
:10249000000000000000000000000000000000003C
:1024A000000000000000000000000000000000002C
:1024B000000000000000000000000000000000001C
:1024C000000000000000000000000000000000000C
:1024D00000000000000000000000000000000000FC
:1024E00000000000000000000000000000000000EC
:1024F00000000000000000000000000000000000DC
:1025000000000000000000000000000000000000CB
:102510000000C000000000804040800080404080FB
:1025200000C04040800040C04000C08000C000802B
:10253000404000000000C0000000C000804040801B
:1025400000C00000C000C0404080000000C040400B
:102550004000C00000C0004040C0404000C000003B
:10256000C000C040408000C040404000000000006B
:10257000000000000000000000000000000000005B
:10258000000000000000000000000000000000004B
:10259000000007040404000304040300070101070A
:1025A00000070404030004070400070001070003F8
:1025B00004050300000000010701000003040403F8
:1025C00000030404030007010304000000070101E5
:1025D00000000304040300000007000000030404DB
:1025E00003000701030400070505040000000000C4
:1025F00000000000000000000000000000000000DB
:102600000000000000000000C0E0F0B058B85CBC62
:102610005CBC5CBC5CBC5CBC5CBC5CBC5CBC5CBCFA
:102620005CBC5CBC5CBC5CBC5CBC5CBC5CBC5CBCEA
:102630005CBC5CBC5CBC5CBC5CBC1C1C1C1C1C1C7A
:102640001C1C1C1C1C1C1C1C1C1C1C1C1C1C1C1CCA
:102650001C1C1C1C1C1C1C1C1C1C1C1C1C1C1C1CBA
:102660001C1C1C1C1C1C1C1C1C1C1C1C1C1C1C1CAA
:10267000181810F0E0C0000000000000000000008A
:1026800000000000000000001F3F7F6AD5EAD5EA85
:10269000D5EAD5EAD5EAD5EAD5EAD5EAD5EAD5EA42
:1026A000D5EAD5EAD5EAD5EAD5EAD5EAD5EAD5EA32
:1026B000D5EAD5EAD5EAD5EAD5EAC0C0C0C0C0C0DF
:1026C000C0C0C0C0C0C0C0C0C0C0C0C0C0C0C0C00A
:1026D000C0C0C0C0C0C0C0C0C0C0C0C0C0C0C0C0FA
:1026E000C0C0C0C0C0C0C0C0C0C0C0C0C0C0C0C0EA
:1026F000C0C0407F3F1F000000000000000000003D
:1027000000000000000000000000000000000101C7
:1027100001010101010101010101010101010101A9
:102720000101010101010101010101010101010199
:102730000101010101010101010101010101010189
:102740000101010101010101010101010101010179
:102750000101010101010101010101010101010169
:102760000101010101010101010101010101010159
:102770000000000000000000000000000000000059
:102780000000000000000000000000000000000049
:102790000000000000000000000000000000000039
:1027A0000000000000000000000000000000000029
:1027B0000000000000000000000000000000000019
:1027C0000000000000000000000000000000000009
:1027D00000000000000000000000000000000000F9
:1027E00000000000000000000000000000000000E9
:1027F00000000000000000000000000000000000D9
:1028000000000000000000000000000000000000C8
:1028100000000000000000000000000000000000B8
:1028200000000000000000000000000000000000A8
:102830000000000000000000000000000000000098
:102840000000000000000000000000000000000088
:102850000000000000000000000000000000000078
:102860000000000000000000000000000000000068
:102870000000000000000000000000000000804098
:102880000000000000000000000000000000000048
:102890000000000000000000000000000000000038
:1028A0000000000000000000000000000000000028
:1028B0000000000000000000000000000000000018
:1028C0000000000000000000000000000000000008
:1028D00000000000000000000000000000000000F8
:1028E00000000000000000000000000000000000E8
:1028F00000000000000000000000000000000000D8
:1029000000000000000000000000000000000000C7
:1029100000000000C00000000080404080008040B7
:10292000408000C04040800040C04000C08000C0E7
:102930000080404000000000C0000000C000804057
:10294000408000C00000C000C0404080000000C0C7
:1029500040404000C00000C0004040C0404000C0B7
:102960000000C000C040408000C040404000000067
:102970000000000000000000000000000000000057
:102980000000000000000000000000000000000047
:10299000000000000704040400030404030007010E
:1029A00001070007040403000407040007000107EF
:1029B00000030405030000000001070100000304F8
:1029C00004030003040403000701030400000007DC
:1029D00001010000030404030000000700000003DD
:1029E00004040300070103040007050504000000B8
:1029F00000000000000000000000000000000000D7
:102A000000000000000000000000C0E0F0B058B876
:102A10005CBC5CBC5CBC5CBC5CBC5CBC5CBC5CBCF6
:102A20005CBC5CBC5CBC5CBC5CBC5CBC5CBC5C1C86
:102A30001C1C1C1C1C1C1C1C1C1C1C1C1C1C1C1CD6
:102A40001C1C1C1C1C1C1C1C1C1C1C1C1C1C1C1CC6
:102A50001C1C1C1C1C1C1C1C1C1C1C1C1C1C1C1CB6
:102A60001C1C1C1C1C1C1C1C1C1C1C1C1C1C1C1CA6
:102A70001C1C181810F0E0C000000000000000004E
:102A8000000000000000000000001F3F7F6AD5EA40
:102A9000D5EAD5EAD5EAD5EAD5EAD5EAD5EAD5EA3E
:102AA000D5EAD5EAD5EAD5EAD5EAD5EAD5EAD5C058
:102AB000C0C0C0C0C0C0C0C0C0C0C0C0C0C0C0C016
:102AC000C0C0C0C0C0C0C0C0C0C0C0C0C0C0C0C006
:102AD000C0C0C0C0C0C0C0C0C0C0C0C0C0C0C0C0F6
:102AE000C0C0C0C0C0C0C0C0C0C0C0C0C0C0C0C0E6
:102AF000C0C0C0C0407F3F1F0000000000000000B9
:102B000000000000000000000000000000000000C5
:102B100001010101010101010101010101010101A5
:102B20000101010101010101010101010101010195
:102B30000101010101010101010101010101010185
:102B40000101010101010101010101010101010175
:102B50000101010101010101010101010101010165
:102B60000101010101010101010101010101010155
:102B70000101000000000000000000000000000053
:102B80000000000000000000000000000000000045
:102B90000000000000000000000000000000000035
:102BA0000000000000000000000000000000000025
:102BB0000000000000000000000000000000000015
:102BC0000000000000000000000000000000000005
:102BD00000000000000000000000000000000000F5
:102BE00000000000000000000000000000000000E5
:102BF00000000000000000000000000000000000D5
:102C000000000000000000000000000000000000C4
:102C100000000000000000000000000000000000B4
:102C200000000000000000000000000000000000A4
:102C30000000000000000000000000000000000094
:102C40000000000000000000000000000000000084
:102C50000000000000000000000000000000000074
:102C60000000000000000000000000000000000064
:102C70000000000000000000000000000000000054
:102C80008040000000000000000000000000000084
:102C90000000000000000000000000000000000034
:102CA0000000000000000000000000000000000024
:102CB0000000000000000000000000000000000014
:102CC0000000000000000000000000000000000004
:102CD00000000000000000000000000000000000F4
:102CE00000000000000000000000000000000000E4
:102CF00000000000000000000000000000000000D4
:102D000000000000000000000000000000000000C3
:102D1000000000000000C000000000804040800073
:102D20008040408000C04040800040C04000C080E3
:102D300000C00080404000000000C0000000C00053
:102D40008040408000C00000C000C04040800000C3
:102D500000C040404000C00000C0004040C04040B3
:102D600000C00000C000C040408000C040404000A3
:102D70000000000000000000000000000000000053
:102D80000000000000000000000000000000000043
:102D90000000000000000704040400030404030012
:102DA00007010107000704040300040704000700EB
:102DB00001070003040503000000000107010000F3
:102DC00003040403000304040300070103040000D8
:102DD00000070101000003040403000000070000D5
:102DE00000030404030007010304000705050400B1
:102DF00000000000000000000000000000000000D3
:102E0000000000000000000000000000C0E0F0B082
:102E100058B85CBC5CBC5CBC5CBC5CBC5CBC5CBCFA
:102E20005CBC1C1C1C1C1C1C1C1C1C1C1C1C1C1C02
:102E30001C1C1C1C1C1C1C1C1C1C1C1C1C1C1C1CD2
:102E40001C1C1C1C1C1C1C1C1C1C1C1C1C1C1C1CC2
:102E50001C1C1C1C1C1C1C1C1C1C1C1C1C1C1C1CB2
:102E60001C1C1C1C1C1C1C1C1C1C1C1C1C1C1C1CA2
:102E70001C1C1C1C181810F0E0C000000000000012
:102E80000000000000000000000000001F3F7F6AFB
:102E9000D5EAD5EAD5EAD5EAD5EAD5EAD5EAD5EA3A
:102EA000D5EAC0C0C0C0C0C0C0C0C0C0C0C0C0C0E3
:102EB000C0C0C0C0C0C0C0C0C0C0C0C0C0C0C0C012
:102EC000C0C0C0C0C0C0C0C0C0C0C0C0C0C0C0C002
:102ED000C0C0C0C0C0C0C0C0C0C0C0C0C0C0C0C0F2
:102EE000C0C0C0C0C0C0C0C0C0C0C0C0C0C0C0C0E2
:102EF000C0C0C0C0C0C0407F3F1F00000000000035
:102F000000000000000000000000000000000000C1
:102F100000000101010101010101010101010101A3
:102F20000101010101010101010101010101010191
:102F30000101010101010101010101010101010181
:102F40000101010101010101010101010101010171
:102F50000101010101010101010101010101010161
:102F60000101010101010101010101010101010151
:102F7000010101010000000000000000000000004D
:102F80000000000000000000000000000000000041
:102F90000000000000000000000000000000000031
:102FA0000000000000000000000000000000000021
:102FB0000000000000000000000000000000000011
:102FC0000000000000000000000000000000000001
:102FD00000000000000000000000000000000000F1
:102FE00000000000000000000000000000000000E1
:102FF00000000000000000000000000000000000D1
:1030000000000000000000000000000000000000C0
:1030100000000000000000000000000000000000B0
:1030200000000000000000000000000000000000A0
:103030000000000000000000000000000000000090
:103040000000000000000000000000000000000080
:103050000000000000000000000000000000000070
:103060000000000000000000000000000000000060
:103070000000000000000000000000000000000050
:103080000000804000000000000000000000000080
:103090000000000000000000000000000000000030
:1030A0000000000000000000000000000000000020
:1030B0000000000000000000000000000000000010
:1030C0000000000000000000000000000000000000
:1030D00000000000000000000000000000000000F0
:1030E00000000000000000000000000000000000E0
:1030F00000000000000000000000000000000000D0
:1031000000000000000000000000000000000000BF
:103110000000000000000000C000000000804040EF
:1031200080008040408000C04040800040C040009F
:10313000C08000C00080404000000000C0000000CF
:10314000C0008040408000C00000C000C0404080FF
:10315000000000C040404000C00000C0004040C02F
:10316000404000C00000C000C040408000C040405F
:10317000400000000000000000000000000000000F
:10318000000000000000000000000000000000003F
:103190000000000000000000070404040003040411
:1031A00003000701010700070404030004070400EB
:1031B00007000107000304050300000000010701E8
:1031C00000000304040300030404030007010304D4
:1031D00000000007010100000304040300000007D1
:1031E00000000003040403000701030400070505B1
:1031F00004000000000000000000000000000000CB
:103200000000000000000000000000000000C0E01E
:10321000F0B058B85CBC1C1C1C1C1C1C1C1C1C1CCE
:103220001C1C1C1C1C1C1C1C1C1C1C1C1C1C1C1CDE
:103230001C1C1C1C1C1C1C1C1C1C1C1C1C1C1C1CCE
:103240001C1C1C1C1C1C1C1C1C1C1C1C1C1C1C1CBE
:103250001C1C1C1C1C1C1C1C1C1C1C1C1C1C1C1CAE
:103260001C1C1C1C1C1C1C1C1C1C1C1C1C1C1C1C9E
:103270001C1C1C1C1C1C181810F0E0C000000000D6
:1032800000000000000000000000000000001F3FE0
:103290007F6AD5EAD5EAC0C0C0C0C0C0C0C0C0C047
:1032A000C0C0C0C0C0C0C0C0C0C0C0C0C0C0C0C01E
:1032B000C0C0C0C0C0C0C0C0C0C0C0C0C0C0C0C00E
:1032C000C0C0C0C0C0C0C0C0C0C0C0C0C0C0C0C0FE
:1032D000C0C0C0C0C0C0C0C0C0C0C0C0C0C0C0C0EE
:1032E000C0C0C0C0C0C0C0C0C0C0C0C0C0C0C0C0DE
:1032F000C0C0C0C0C0C0C0C0407F3F1F00000000B1
:1033000000000000000000000000000000000000BD
:1033100000000000010101010101010101010101A1
:10332000010101010101010101010101010101018D
:10333000010101010101010101010101010101017D
:10334000010101010101010101010101010101016D
:10335000010101010101010101010101010101015D
:10336000010101010101010101010101010101014D
:103370000101010101010000000000000000000047
:10338000000000000000000000000000000000003D
:10339000000000000000000000000000000000002D
:1033A000000000000000000000000000000000001D
:1033B000000000000000000000000000000000000D
:1033C00000000000000000000000000000000000FD
:1033D00000000000000000000000000000000000ED
:1033E00000000000000000000000000000000000DD
:1033F00000000000000000000000000000000000CD
:1034000000000000000000000000000000000000BC
:1034100000000000000000000000000000000000AC
:10342000000000000000000000000000000000009C
:10343000000000000000000000000000000000008C
:10344000000000000000000000000000000000007C
:10345000000000000000000000000000000000006C
:10346000000000000000000000000000000000005C
:10347000000000000000000000000000000000004C
:10348000000000008040000000000000000000007C
:10349000000000000000000000000000000000002C
:1034A000000000000000000000000000000000001C
:1034B000000000000000000000000000000000000C
:1034C00000000000000000000000000000000000FC
:1034D00000000000000000000000000000000000EC
:1034E00000000000000000000000000000000000DC
:1034F00000000000000000000000000000000000CC
:1035000000000000000000000000000000000000BB
:1035100000000000000000000000C000000000806B
:10352000404080008040408000C04040800040C05B
:103530004000C08000C00080404000000000C0008B
:103540000000C0008040408000C00000C000C040BB
:103550004080000000C040404000C00000C000406B
:1035600040C0404000C00000C000C040408000C0DB
:10357000404040000000000000000000000000008B
:10358000000000000000000000000000000000003B
:103590000000000000000000000007040404000315
:1035A00004040300070101070007040403000407E3
:1035B00004000700010700030405030000000001E8
:1035C00007010000030404030003040403000701CF
:1035D00003040000000701010000030404030000CD
:1035E00000070000000304040300070103040007B0
:1035F00005050400000000000000000000000000BD
:1036000000000000000000000000000000000000BA
:10361000C0E0F01018181C1C1C1C1C1C1C1C1C1CC2
:103620001C1C1C1C1C1C1C1C1C1C1C1C1C1C1C1CDA
:103630001C1C1C1C1C1C1C1C1C1C1C1C1C1C1C1CCA
:103640001C1C1C1C1C1C1C1C1C1C1C1C1C1C1C1CBA
:103650001C1C1C1C1C1C1C1C1C1C1C1C1C1C1C1CAA
:103660001C1C1C1C1C1C1C1C1C1C1C1C1C1C1C1C9A
:103670001C1C1C1C1C1C1C1C181810F0E0C000009A
:10368000000000000000000000000000000000003A
:103690001F3F7F40C0C0C0C0C0C0C0C0C0C0C0C00D
:1036A000C0C0C0C0C0C0C0C0C0C0C0C0C0C0C0C01A
:1036B000C0C0C0C0C0C0C0C0C0C0C0C0C0C0C0C00A
:1036C000C0C0C0C0C0C0C0C0C0C0C0C0C0C0C0C0FA
:1036D000C0C0C0C0C0C0C0C0C0C0C0C0C0C0C0C0EA
:1036E000C0C0C0C0C0C0C0C0C0C0C0C0C0C0C0C0DA
:1036F000C0C0C0C0C0C0C0C0C0C0407F3F1F00002D
:1037000000000000000000000000000000000000B9
:10371000000000000000010101010101010101019F
:103720000101010101010101010101010101010189
:103730000101010101010101010101010101010179
:103740000101010101010101010101010101010169
:103750000101010101010101010101010101010159
:103760000101010101010101010101010101010149
:103770000101010101010101000000000000000041
:103780000000000000000000000000000000000039
:103790000000000000000000000000000000000029
:1037A0000000000000000000000000000000000019
:1037B0000000000000000000000000000000000009
:1037C00000000000000000000000000000000000F9
:1037D00000000000000000000000000000000000E9
:1037E00000000000000000000000000000000000D9
:1037F00000000000000000000000000000000000C9
:1038000000000000000000000000000000000000B8
:1038100000000000000000000000000000000000A8
:103820000000000000000000000000000000000098
:103830000000000000000000000000000000000088
:103840000000000000000000000000000000000078
:103850000000000000000000000000000000000068
:103860000000000000000000000000000000000058
:103870000000000000000000000000000000000048
:103880000000000000004C697374656E696E672E5D
:103890002E2E002B2B000000000080C0E0F0F8FC72
:1038A000FEFFFF7F7F7F7F7F7F7F7F7F7F7F7F7FA9
:1038B0007F00FFFFFEFCF8F0E0C080000000000089
:1038C000B0B8BCBEBFBFBFBFBFBFBFBFBFBF0000A0
:1038D00000000000000000000000000000BFBFBFAB
:1038E000BFBFBFBFBFBFBFBEBCB0A0FFFFFFFFFFDA
:1038F000FFFFFFFFFFFFFFFFFF00000000000000D1
:103900000000000000000000FFFFFFFFFFFFFFFFBF
:10391000FFFFFFFFFFFF7FFFFFFFFFFFFFFFFFFF37
:10392000FFFFFFFFE0E0E0E0E0E0E0E0E0E0E0E01B
:10393000E0E000FFFFFFFFFFFFFFFFFFFFFFFFFFD4
:103940007F00000103070F1F3F7FFFFFFFFFFFFF07
:10395000FFFFFFFFFFFFFFFFFFFFFFFFFF00FFFF76
:10396000FFFFFF7F3F1F0F07030100000000000063
:10397000000000000000010307070707070707070B
:1039800007070707070707070007070301000000ED
:10399000000000000000004C697374656E696E677A
:1039A0002E2E2E001C2B000000000080C0E0F0F83E
:1039B000FCFEFFFFFFFFFFFFFFFFFFFFFFFFFFFF1B
:1039C000FFFF30383C3E3F3F3F3F3F3F3F3F3F3FA1
:1039D000BFBFBFBFBFBFBFBFBFBFBFBFBFBF000075
:1039E000000000000000000000000000FFFFFFFFDB
:1039F000FFFFFFFFFFFFFFFFFFFF000000000000D1
:103A00000000000000000000FFFFFFFFFFFFFFFFBE
:103A1000FFFFFFFFFFFF00000000000000000000AC
:103A200000000000FFFFFFFFFFFFFFFFFFFFFFFFA2
:103A3000FFFF000000000000000000000000000088
:103A400007070707070707070707070707074C695F
:103A50007374656E696E672E2E2E002B2B7F7F7F11
:103A60007F7F7F7F7F7F7F7F7F7F7F7F7F7F7F7F66
:103A70007F7F7F7F7F7F7F7F7F00FFFFFEFCF8F0EF
:103A8000E0C0800000000000808080808080808016
:103A90008080808080808080808080808080808026
:103AA0008080808000BFBFBFBFBFBFBFBFBFBFBEE2
:103AB000BCB0A0FFFFFFFFFFFFFFFFFFFFFFFFFF07
:103AC000FF3F3F3F3F3F3F3F3F3F3F3F3F3F3F0085
:103AD0003F3F3F3F3F3F3F3F3F3F3F3F3F3FFFFF76
:103AE000FFFFFFFFFFFFFFFFFFFFFFFFE0E0E0E062
:103AF000E0E0E0E0E0E0E0E0E0E000E0E0E0E0E0A6
:103B0000E0E0E0E0E0E0E0E0E0FFFFFFFFFFFFFFDC
:103B1000FFFFFFFFFFFFFFFFFFFFFFFFFFFFFFFFB5
:103B2000FFFFFFFFFF00FFFFFFFFFFFFFFFFFFFFA4
:103B3000FFFFFFFF07070707070707070707070735
:103B40000707070707070707070707070707070705
:103B50000007070707070707070707070707074CB7
:103B6000697374656E696E672E2E2E002B2B7F7F16
:103B70007F7F7F7F7F7F7F7F7F7F7F7F7F7F7F7F55
:103B80007F7F7F7F7F7F7F7F7F7F00FFFFFEFCF84F
:103B9000F0E0C08000000000008080808080808095
:103BA0008080808080808080808080808080808015
:103BB000808080808000BFBFBFBFBFBFBFBFBFBF0F
:103BC000BEBCB0A03F3F3F3F3F3F3F3F3F3F3F3F37
:103BD0003F3F3F3F3F3F3F3F3F3F3F3F3F3F3F3FF5
:103BE00000FFFFFFFFFFFFFFFFFFFFFFFFFFFFE003
:103BF000E0E0E0E0E0E0E0E0E0E0E0E0E0E0E0E0C5
:103C0000E0E0E0E0E0E0E0E0E0E0E000FFFFFFFF18
:103C1000FFFFFFFFFFFFFFFFFFFFFFFFFFFFFFFFB4
:103C2000FFFFFFFFFFFFFFFFFFFFFFFFFFFFFFFFA4
:103C3000FFFFFFFFFFFF00FFFFFFFFFFFFFFFFFF93
:103C4000FFFFFFFFFF07070707070707070707072C
:103C500007070707070707070707070707070707F4
:103C600007000707070707070707070707070707EB
:103C70004C697374656E696E672E2E2E002B2BFFB8
:103C8000FFFFFFFFFFFFFFFFFFFFFFFFFF00000041
:103C9000000000000000000000000000FFFFFEFC2C
:103CA000F8F0E0C0800000000000BFBFBFBFBFBF92
:103CB000BFBFBFBFBFBFBFBF80808080808080800C
:103CC00080808080808000BFBFBFBFBFBFBFBFBF3D
:103CD000BFBEBCB8B03F3F3F3F3F3F3F3F3F3F3F8E
:103CE0003F3F3F3F3F3F3F3F3F3F3F3F3F3F3F3FE4
:103CF0003F00FFFFFFFFFFFFFFFFFFFFFFFFFFFF93
:103D000000000000000000000000000000000000B3
:103D100000000000000000000000000000FFFFFFA6
:103D2000FFFFFFFFFFFFFFFFFFFFFF00000000009E
:103D30000000000000000000000000000000000083
:103D40000000000000000000FFFFFFFFFFFFFFFF7B
:103D5000FFFFFFFFFFFF0000000000000000000069
:103D60000000000000000000000000000000000053
:103D700000000007070707070707070707070707E8
:103D8000074C697374656E696E672E2E2E002B2B9F
:103D9000FFFFFFFFFFFFFFFFFFFFFFFFFFFF7F7F33
:103DA0007F7F7F7F7F7F7F7F7F7F7F7F007F7F7FA2
:103DB0007F7F7F7F7F7F7F7F7F7F7FBFBFBFBFBFD3
:103DC000BFBFBFBFBFBFBFBFBF80808080808080BC
:103DD0008080808080808000808000000000000063
:103DE0000000000000003F3F3F3F3F3F3F3F3F3F5D
:103DF0003F3F3F3F3F3F3F3F3F3F3F3F3F3F3F3FD3
:103E00003F3F00FFFFFFFEFCF8F0E0C08000000035
:103E100000E0E0E0E0E0E0E0E0E0E0E0E0E0E0E082
:103E2000E0E0E0E0E0E0E0E0E0E0E0E0E000FFFF34
:103E3000FFFFFFFFFFFFFFFFFFFEFCF8FFFFFFFF9D
:103E4000FFFFFFFFFFFFFFFFFFFFFFFFFFFFFFFF82
:103E5000FFFFFFFFFFFFFFFF00FFFFFFFFFFFFFF71
:103E6000FFFFFFFFFFFFFF0707070707070707071A
:103E700007070707070707070707070707070707D2
:103E800007070700070707070707070707070707C9
:103E9000070761A112AD4092AD52AD12FFAD52AD18
:103EA000DE76ADDAADFEFFBD76ADFFFFADFFBDFF47
:103EB000FFBFFFADFF33E59F3FFFFFBDFFADFF0637
:103EC00025DFAD7EDEAD76ADFF52AD52A1F34EAD36
:103ED00012AD00022100210000A100AD0000810010
:103EE0000000002080808000000000000000000032
:103EF00000000000000000000000000000000000C2
:103F000000000000000000000000000000000000B1
:103F10000000B4B449B44A49B44BB44BFFB4DBB469
:103F20006BDBB5FFB5DBFFB5FFB5FF7F15FF656F39
:103F300077796DEEA620101FE01FFFB5FFB5FF00DB
:103F4000A4FFB5DBFFB4DBB4FFDBB54BB5FD4BB471
:103F500049B45848B400A40000B440B40000B40010
:103F600000000287FC0001FB0605CD3901FB0605B8
:103F7000FD01C1FE6020F05050D07060C06030D0B4
:103F80005050D0B0F61909FFE420A05050505030E6
:103F90000000D8D4609669EAD669D66DFF966DD6D2
:103FA000FB6DD2EDDC1DBCBC3D7C717CF3E1E0E03F
:103FB000E0C0C0C0C0C1C1C2CFF8EFD6CDD69F000F
:103FC00010FFD66DFF966D96FF6DD6E9D6FFEBD646
:103FD00069D6EF20966994008094209400009400A4
:103FE0000000000C0B18060100040F080603000770
:103FF000080807070C08090607CCC8C98784C86DDC
:104000001FC1700E0D080C070408090B06060000FE
:104010000000DF4EB54AB5BD5EBD4AB7FF4EB74A98
:10402000BDB75EBD5EB7FD4E32C0FE40C0808C8421
:1040300080818181818BC3C303C30B4BB34B0B00C6
:1040400040BD4AB7BD4AB74ABFB75ABD5EFFBD4E75
:10405000B54EBD954AB44A99A44A814A00804A00A7
:10406000000000020040000000000200000000000C
:104070000000000000000000000001010202020236
:104080000180D8E4C28F117B840000000000000092
:1040900000006B6B956B949C6B946B95F56B9C6BB4
:1040A00094956B946B9C7C01FE07F304031F7FFFC8
:1040B000FFFFFFFF7F3F030001038E80156B84002D
:1040C0000A946B95946B9C6B94956B946BFF946BBB
:1040D000956BB59C6B946B94946B046B08044B00CC
:1040E00000000049000A00000A0008000048000023
:1040F00000000000000000000000000000000000C0
:104100001F212E29381F0886834080808040800030
:104110000000FDE992691692A916E9125E6912E99A
:104120005612A916A91230291200FF000000000142
:104130000F3F1F070000C000A2000123072E00064A
:104140002012A99216E912E95612A916A9B3D6E9C6
:1041500092695692A9D6A99256E992E9CF92E900BE
:10416000000000290021000029002000002000009C
:1041700000040E09FB0605FD755DD19B2460C0603F
:10418000A05050D0D070C07F00C0FE3F00E01F00A4
:10419000000035B548B50248A502B54802B548B596
:1041A0000248A502A54800A448A4000000000000A1
:1041B00000000000000001FE010000A548A400006E
:1041C0008402A50000A548A50248A502050502A590
:1041D000488402088502850102A548A50348A50276
:1041E000000000A448840040A4000000008000A05B
:1041F00000040E0E0B080A0B0A0E0E0504060C082E
:10420000090A060D08080F08080F0F08080F00001C
:1042100000005050605660405660566070564056E0
:104220006060566050407050605C5F20202000004D
:1042300000000000002010501F004050605060003F
:104240001060506060540014606050600000605066
:1042500060506000106050606010005460605060FA
:10426000000060100050400010601000601000500E
:1042700040001060000060000040400000000000AE
:10428000000000000000000000000000000000002E
:104290000000622911241FBECFEFDAE0DEBFCDBFE0
:1042A00011E0A0E0B1E0EAEFFFE502C005900D9259
:1042B000A235B107D9F725E0A2E5B1E001C01D9212
:1042C000AF3DB207E1F711E2CAE4D1E204C02197A1
:1042D000FE010E94F52FC934D107C9F70E94932926
:1042E0000C94FB2F0C940000E8E7F1E030EB20E1A8
:1042F00046E05C983EBD4A95F1F72EBD20E8239537
:1043000007C0449140815C9A4EBD8111412D41937B
:1043100044912A95B1F73395383B49F70DB4089588
:1043200080E00C9474219C012770332781E001C048
:10433000880F2A95EAF7E8E7F4E021E8215031F008
:104340009191DF011197982B9C93F8CF08954F928C
:104350005F926F927F928F929F92AF92BF92CF9215
:10436000DF92EF92FF920F931F93CF93DF93802EF4
:10437000912CF401E60FF71FF7FD6BC06034710557
:104380000CF067C030E0E62FE7707E2EE3E09594F6
:104390008794EA95E1F7F3E075956795FA95E1F76B
:1043A000062E000C770BDB01B695BA2FAA27B7951E
:1043B000A795A80FB91FA858BE4FEA0150E040E0EA
:1043C000E0E8F0E07F01E81AF90A8A01060F171FFA
:1043D000083011050CF03DC00F3FFFEF1F077CF1C7
:1043E00090E080E05D01E0E8AE0EB11CFC01EC0F56
:1043F000FD1FE491F0E02F01072C02C0440C551C76
:104400000A94E2F70F3F1007A9F16D01C80ED91EFB
:10441000F601608064286082772051F00730110532
:1044200039F06501C80ED91EF601608065286082EA
:104430000196821793071CF4E816F906B9F64F5F48
:104440005F4FA058BF4FC20FD31F8416950609F0C7
:10445000BCCFDF91CF911F910F91FF90EF90DF9034
:10446000CF90BF90AF909F908F907F906F905F9014
:104470004F9008957110D5CFDBCF90E0E8E7F1E0E1
:1044800091119FEF8FEF919391939193919381501D
:10449000D0F7E8ECF5E0128A118A108A17860895A1
:1044A0002FB7F89483E08093E9009091E800892F7A
:1044B000807295FF04C09091F20080E4891B2FBFA9
:1044C0000895FC0180917701882311F13FB7F8949A
:1044D00082E08093E9002091F200822F90E018168C
:1044E000190614F481E090E0882339F0289844E616
:1044F000409376014091F1004083222339F02091CE
:10450000F200211103C02BE62093E8003FBF08957D
:104510008FEF9FEF089580916E0181110DC082E0B1
:1045200080936A0184E080936B0110926D01109278
:104530006C0181E080936E018AE691E008954091DC
:104540005C0150915D0120915A0130915B0142174D
:104550005307B4F49091E8009570E1F39091E8006E
:1045600092FD19C08093F10080915C0190915D01F2
:1045700001968F739927892B19F48EEF8093E800A9
:1045800080915C0190915D01019690935D01809313
:104590005C0181E0089580E00895DF92EF92FF9240
:1045A0000F931F93CF93DF93D82E8A01EB017B01EA
:1045B000E40EF51ECE15DF0559F0D7FE12C0FE0140
:1045C00084910E949F2221968111F4CF0FEF1FEF5B
:1045D000C801DF91CF911F910F91FF90EF90DF9075
:1045E00008958881EECF0F931F93CF93DF931F928F
:1045F000CDB7DEB782E0898342E450E06CEA75E033
:1046000080E80E94CD220E948B22DC0112960D913F
:104610001C910115110589F0D801ED91FC910280E2
:10462000F381E02DBE016F5F7F4FC801099597FDB3
:1046300004C0F80100851185ECCF89810F90DF91CE
:10464000CF911F910F910895615030F02091F100AA
:10465000FC0120830196F8CF289884E680937601A8
:104660000895AF92BF92CF92DF92EF92FF920F9395
:104670001F93CF93DF936C017B018B01040F151FF8
:10468000EB015E01AE18BF08C017D10759F0699160
:10469000D601ED91FC910190F081E02DC6010995C4
:1046A000892B79F7C501DF91CF911F910F91FF9071
:1046B000EF90DF90CF90BF90AF900895CF93DF93AE
:1046C0001F92CDB7DEB76983DC01ED91FC910280CA
:1046D000F381E02D41E050E0BE016F5F7F4F09950F
:1046E0000F90DF91CF91089583E08093E90080914E
:1046F000F200882319F08AE38093E80008950E946D
:10470000502290E00895CF93DF931F92CDB7DEB78C
:10471000FC018485958597FD08C02FEF3FEF358715
:1047200024870F90DF91CF910895CE0101960E94CA
:104730006122019719F4898190E0F3CF8FEF9FEF09
:10474000F0CF0F931F93CF93DF931F92CDB7DEB7B8
:104750008C01FC018485958597FF0BC0CE010196E5
:104760000E946122019771F4898190E0F801958798
:104770008487F801848595850F90DF91CF911F91F3
:104780000F9108958FEF9FEFF1CFFC018485958500
:1047900097FD0BC09FB7F89482E08093E900809169
:1047A000F2009FBF90E0019608959FB7F89482E0D1
:1047B0008093E9008091F2009FBF90E00895FC0192
:1047C0000E947624319728F068517C4F8F4F9F4F7D
:1047D000F9CFAB01FC010E947624641775078E07A0
:1047E0009F07C8F308958F929F92AF92BF92CF9286
:1047F000DF92EF92FF920F931F93CF93DF936C01A1
:104800007B018A0180910B01882309F45AC08091B1
:104810007701882309F455C08091600180FF05C0AD
:104820008091E00082608093E000E801B12C8AEF83
:10483000A82E93E0892E2AE3922E209711F4BB2014
:10484000C9F10E945022811108C0AA94AA20C9F17E
:1048500081E090E00E94DF23F0CF8C171D0611F05D
:104860000CF08C2F9FB7F8948092E9002091E8001B
:1048700025FD02C09FBFE1CF282F30E0C21BD30B24
:10488000F701815020F041914093F100FACFE20E00
:10489000F31EBB2021F09092E800B12CEBCF809169
:1048A000E80085FDE7CF9092E800BB24B394209701
:1048B00009F3F3CF5D9884E680935F01101611062B
:1048C0003CF081E090E0F6019383828310E000E009
:1048D000C801DF91CF911F910F91FF90EF90DF9072
:1048E000CF90BF90AF909F908F900895A6E5B1E0D4
:1048F0002FB7F8947D918D919C9166B52FBFA89BA1
:1049000005C06F3F18F47F5F8F4F9F4F22E0660F07
:10491000771F881F991F2A95D1F70895AB01FC01D5
:104920000E94762441505109E109F10928F06851AB
:104930007C4F8F4F9F4FF6CFAB01FC010E94762436
:10494000641775078E079F07C8F308952D9A089579
:104950000C94DF230E94E32808952F923F924F92F8
:104960005F926F927F928F929F92AF92BF92CF92FF
:10497000DF92EF92FF920F931F93CF93DF9300D0BC
:1049800000D01F92CDB7DEB79C838B836A3059F578
:10499000DC0155968C91B8E08B9F90011124EB813E
:1049A000FC8181899289820F931F928B818B108A5F
:1049B000178681E090E00F900F900F900F900F906E
:1049C000DF91CF911F910F91FF90EF90DF90CF90EB
:1049D000BF90AF909F908F907F906F905F904F901F
:1049E0003F902F9008956D3021F3AB81BC811F96CD
:1049F0008D919C915097803891050CF087C051960D
:104A0000CD90DC90B0E4CB16D1040CF07FC0EB81EC
:104A1000FC819588E5E09C019E9E200D311D1124AE
:104A2000121613060CF072C0E92CF12C9701B3E0BA
:104A3000220F331FBA95E1F72C0D3D1D12161306F8
:104A40000CF064C0AB81BC8154965C905497539633
:104A50004C906E9FF0011124E455FF4F70E02491BB
:104A6000753009F420E05601A8E06A2E222E312C80
:104A7000642D20FF652D611103C0541409F437C063
:104A8000AC0161706A834983242F281B291578F5AE
:104A900010E000E0091540F54038510510F5980187
:104AA0002A0D3B1D20343105E0F460E1762E89802B
:104AB00061E021FD64E020FD660F22FD6295287F04
:104AC000729ED0011124A80D6D83A858BE4F2C9161
:104AD0003A81862E822A311103C08D8080948222F1
:104AE0008C920F5F1F4FD6CF4F5F5F4FCCCF91019E
:104AF000359527956A94AE0CBF1C6110B7CF7F5FC8
:104B000031968E0D9F1D763009F0A9CFAB81BC8107
:104B100055962C915597422F50E01F968D919C9160
:104B2000B6E02B9F800D911D1124EB81FC81908BB1
:104B300087872689222309F43CCF6AEF640390011A
:104B4000659F300D112420583F4F281739070CF06E
:104B500030CFCF010190F081E02D0190F081E02D68
:104B60006AE0099526CF0F931F93CF93DF938C01B3
:104B7000D0E0C0E0F801EC0FFD1F6491662341F026
:104B800088EC95E00E94AD24892B11F02196F2CF9C
:104B9000CE01DF91CF911F910F910895089508954F
:104BA00090E080E00895FC0101900020E9F7319742
:104BB000AF01481B590BBC0188E795E00C94F32327
:104BC0008F929F92AF92BF920F931F93CF93DF93D9
:104BD000CDB7DEB7A1970FB6F894DEBF0FBECDBF3D
:104BE00019A2423008F44AE08E010F5D1F4F842E57
:104BF000912CB12CA12CA50194010E94C42FE62F69
:104C0000B901CA01EA30F4F4E05DD801EE938D01F8
:104C1000232B242B252B79F790E080E0109719F0B7
:104C2000CD010E94D325A1960FB6F894DEBF0FBE2A
:104C3000CDBFDF91CF911F910F91BF90AF909F900B
:104C40008F900895E95CE1CF0C947C2F1F920F9216
:104C50000FB60F9211248F939F938091E100909152
:104C6000E100937F9093E10083FF0FC01092E90071
:104C700091E09093EB001092EC0092E39093ED00A2
:104C80001092770198E09093F00082FF22C093E0A9
:104C90009093E9009091F200992319F09AE3909390
:104CA000E80090915F01992341F090915F0191504C
:104CB00090935F01911101C05D9A909176019923C3
:104CC00041F090917601915090937601911101C03D
:104CD000289A84FF18C08091E2008E7E81608093C4
:104CE000E2008091E1008F7E8093E100809160017D
:104CF0008E7E8061809360019F918F910F900FBE97
:104D00000F901F90189580FFF7CF8091E2008E7E64
:104D100080618093E2008091E1008E7E8093E100CB
:104D2000809160018E7E8160E5CF1F920F920FB659
:104D30000F921124CF92DF92EF92FF920F931F9365
:104D40002F933F934F935F936F937F938F939F9393
:104D5000AF93BF93EF93FF93CF93DF93CDB7DEB7BE
:104D60006C97DEBFCDBF1092E9008091E80083FF11
:104D700025C068E0CE0145960E94242382EF8093EF
:104D8000E8008D8987FF39C09091E80090FFFCCF43
:104D9000982F907609F034C19E894F89588D2F89BC
:104DA000F88C911131C0803861F580916101809358
:104DB000F1001092F1008EEF8093E8006C960FB630
:104DC000F894DEBF0FBECDBFDF91CF91FF91EF9181
:104DD000BF91AF919F918F917F916F915F914F9113
:104DE0003F912F911F910F91FF90EF90DF90CF9007
:104DF0000F900FBE0F901F9018959EEF9093E800B4
:104E0000C7CF1092F100D5CF913059F48111D3CF93
:104E10004130510581F6809161018D7F8093610160
:104E2000CACF933049F48111C6CF4130510519F6EC
:104E3000809161018260F2CF953041F48091E80069
:104E400080FFFCCF20682093E300B5CF963009F0B7
:104E5000A9C00B8D1C8D22E01092E90010925D011B
:104E600010925C01F2122EC010925B0110925A0156
:104E70000E94F3221F8299E09983FA8291E09E8337
:104E800090EA98879AEF998720915C0130915D01B3
:104E9000275F3F4F3C832B838D831092E900109254
:104EA0005D0110925C0110935B0100935A0149E08F
:104EB00050E0BE016F5F7F4F80E00E94CD220E94D4
:104EC000F32279CF10935B0100935A010E948B2249
:104ED000DC0112960D911C910115110509F410C108
:104EE000D801ED91FC910480F581E02DBE016B5E4F
:104EF0007F4FC8010995009709F0FDC0F8010085B2
:104F00001185EACFF3E0FF120EC08F89882309F4E0
:104F100040C0823061F440E867E080E196E00E94A2
:104F2000EB28811148CF81E28093EB0047CF81309D
:104F300029F440E86BE084E096E0F1CF833099F704
:104F40000E948B22DC011296ED90FC908E010F5F87
:104F50001F4F6801E114F10479F0D701ED91FC9144
:104F60000680F781E02DB801C7010995080F111DD2
:104F7000F701E084F184EECFD8011C92F601019094
:104F80000020E9F73197BF016C197D0940E0C601A7
:104F9000C6CF6EEE75E0FB01449150E080E80E94C0
:104FA000CD2209CF973009F4BECF983021F481E0AB
:104FB0008093F10000CF993009F0FDCE837009F0A5
:104FC000B2CFE1E1F1E081E031E096E321912223EB
:104FD00071F08093E9003093EB00DF0111972C9181
:104FE0002093EC009093ED008F5F873079F78EE788
:104FF0008093EA001092EA008F8980937701DBCEDC
:105000008B8D9C8D1092E90010925D0110925C01D5
:1050100090935B0180935A01898D811151C08E89D3
:105020009D89913A49F4813209F07DCF47E050E003
:1050300064E071E080E0B3CF913209F074CF833245
:1050400069F48F89988DB0E0A0E08093000190937F
:105050000101A0930201B0930301ADCE803269F447
:105060008091E80082FFFCCF67E084E091E00E943D
:1050700024238BEF8093E8009ECE823209F09BCEF2
:105080008F8980930B018091040190910501A0917B
:105090000601B0910701803B9440A105B10569F478
:1050A00080910B0180FD09C088E780935E018091AB
:1050B00064008F7D809364007ECE10925E017BCE73
:1050C0000E948B22DC0112960D911C910115110595
:1050D00009F429CFD801ED91FC910190F081E02DE8
:1050E000BE016B5E7F4FC8010995811164CEF80146
:1050F00000851185EBCF181619060CF45CCE13CF82
:10510000F1E0FF12FFCE62EF75E045CF0F930FB7CE
:105110000F931F9211248F939F93EF93FF93E2E6D7
:10512000F1E08091550191E08D5F8D3710F08D5742
:105130009395809355018081890F80839181911D82
:1051400091830281011D02838381811D838309274D
:105150000F70092702950093540135D081110093F7
:105160005201803989F400915301901B963070F000
:1051700087E7809300088093010888E198E0809396
:10518000600090936000FFCF9093530180915E0187
:10519000815018F080935E0159F3E6E5F1E08081DB
:1051A000918101968083918382819381811D911DDC
:1051B00082839383FF91EF919F918F911F900F9125
:1051C0000FBF0F9118958FB18095807F669B886087
:1051D0001C9B84600895EF92FF920F931F93CF93CF
:1051E000DF93F82E192FE62E042F81E0860F880F0B
:1051F0000E949F2283E00E949F22CF2DD12FEC0E90
:10520000FD2EF11CCE15DF05B9F007FF13C0FE011E
:1052100084910E949F22182F80E00E949F22812368
:1052200021968111EFCFDF91CF911F910F91FF90C8
:10523000EF9008958881EDCF81E0F5CF0F931F9314
:10524000CF93DF938C0181E090E00E94242680FFC1
:1052500031C08AE090E00E9424269FEF980F9E3F85
:1052600048F522E330E0D80150963C932E931F97E7
:1052700028E330E052963C932E935197CBE0D0E058
:10528000D801ED91FC910190F081E02D682FC801CB
:105290000995CE010E9424262196C131D10581F7BE
:1052A0000E94902188EE93E0DF91CF911F910F91A2
:1052B0000C94A824DF91CF911F910F91089504972A
:1052C0000C941E29E8E7F5E01382128288EE93E041
:1052D000A0E0B0E084839583A683B7838BE191E05F
:1052E000918380838FEF9FEF95878487E8ECF5E0CB
:1052F000138212821186128680E1838710861782BC
:1053000015868DE291E0918380838BE391E0958314
:105310008483108A1786128A118A81E0838B148A0B
:10532000858B168A0895789483E084BD83E085BDDB
:1053300081E080936E00E1E8F0E083E08083E0E8C4
:1053400081E08083E1E983E08083E0E981E080839C
:10535000E1EC87E08083E3EC81E08083E0EC82E0B5
:105360008083E2EC81E08083EAE787E080838068E5
:1053700080831092770110926101109260018091F8
:10538000D70081608093D70080EA8093D80089B5E8
:10539000806189BD89B5826089BD09B400FEFDCFF9
:1053A00081E090E00E94DF238091D8008F7C8061B3
:1053B0008093D8008091E000807F8093E00080910E
:1053C000E1008E7E8093E1008DE08093E200559AAB
:1053D000209A81EC80937C0081EF85B987EE84B9B7
:1053E00084E38BB984EF8AB9769A6E9880EF81BB9B
:1053F00010BA80E58CBD81E08DBD85E090E00E9413
:10540000A8245F9902C05F9AF8CF5C98E8ECF6E0B8
:105410009AE085918EBD00000DB407FEFDCF8EB5DC
:105420009A95B9F75C9A81E88093640081E0809353
:1054300065000E9474210E94AA2487FF11C05C9815
:1054400085EA8EBD00000DB407FEFDCF8EB55C9AD7
:105450002E982F982D9881E083BF889513BEFCCF9E
:105460000E94AA2482FF48C02D980E94AA24847812
:105470008438E1F40E94A62488EC90E00E94A824DD
:105480002F9882E090E00E947C2F8F3F29F06FEFF1
:1054900082E090E00E94842F84EF91E00E94A82493
:1054A0002F9A0E94AA2484788438D9F30E94AA24CF
:1054B00084718431E1F40E94A62488EC90E00E947B
:1054C000A8242E9882E090E00E947C2F882329F067
:1054D00060E082E090E00E94842F84EF91E00E94DF
:1054E000A8242E9A0E94AA2484718431D9F388ECCE
:1054F00090E00E94A824B4CF0E94A62482E090E00D
:105500000E942426882309F4D8C23E9A3F9A81E05B
:1055100090E00E942426182F147081FF0CC01111F6
:105520002E98C0EFDFEF0E94AA2486FFC9C22E9AF0
:105530002F9A0E94A62482E390E00E94A8240E9451
:10554000AA248111F8CF82E48093D305809164006E
:105550008E7F8093640080917A00806480937A00CB
:1055600080917A0086FDFCCFC0917800D0917900BF
:105570000E947624AB01BC01CE01B0E0A0E0DC01CA
:10558000992788278C019D01040F151F261F371F9F
:10559000C901B80120916400216020936400611565
:1055A00071058105910511F00E94732F8FEF9FEF18
:1055B000909385058093840540E054E068E771E0AE
:1055C00088E795E00E94F3230E9490219091620168
:1055D0008091D405192F181B812F2091D5052223E6
:1055E00009F49BC21093D6051092D50586E3A82E28
:1055F000B12C9AE0292E312CC9E1D0E02FE0822E87
:10560000912C11E08091D1058093D2050E94AA24AB
:105610008093D1051093DD05809168019091690117
:10562000892BD1F40E943D2200E420E842E95EE3A8
:1056300068E070E090E080E00E94A7210E94902145
:1056400068EB7BE080E090E00E948E2421E030E077
:1056500030936901209368010E943D2200E420E814
:1056600048EE56E070E060E090E080E00E94A72104
:1056700087E390E00E9493211092D8051092D705FD
:1056800088E390E09093DA058093D90582ED96E067
:105690000E94B3250E9490210E94AA2483FF71C218
:1056A0000E943D220BE22BE24EE85DE365E070E0F4
:1056B0008DE290E00E94A72182E390E00E94932176
:1056C0001092D8051092D705B092DA05A092D905AC
:1056D00081E89DE30E94B3250E94902168EE73E06B
:1056E00080E090E00E948E240E943D222BE24DE754
:1056F0005CE365E070E08DE290E00E94A72182E328
:1057000090E00E9493211092D8051092D705B09294
:10571000DA05A092D90580E79CE30E94B3250E9498
:10572000902168EE73E080E090E00E948E240E9459
:105730003D222BE24CE65BE365E070E08DE290E019
:105740000E94A72182E390E00E9493211092D80545
:105750001092D705B092DA05A092D9058FE59BE3A8
:105760000E94B3250E94902168EE73E080E090E0F3
:105770000E948E240E943D222BE24BE55AE365E015
:1057800070E08DE290E00E94A72182E390E00E9409
:1057900093211092D8051092D705B092DA05A09205
:1057A000D9058EE49AE30E94B3250E94902168EE09
:1057B00073E080E090E00E948E240E943D222CE164
:1057C00044EA59E365E070E08DE290E00E94A72191
:1057D00082E390E00E9493211092D8051092D705A1
:1057E000B092DA05A092D90587E999E30E94B32522
:1057F0000E94902168EE73E080E090E00E948E2489
:105800000E943D222BE243E958E365E070E08DE21F
:1058100090E00E94A72182E390E00E9493211092E1
:10582000D8051092D705B092DA05A092D90586E87E
:1058300098E30E94B3250E94902168EE73E080E017
:1058400090E00E948E240E943D2200E420E844E87B
:1058500054E370E060E090E080E00E94A7210E94A5
:1058600090216CE271E080E090E00E948E240E9422
:105870003D2220E842E850E370E060E090E080E004
:105880000E94A7210E9490216CE271E080E090E0EC
:105890000E948E240E943D2220E840E85CE270E0F5
:1058A00060E090E080E00E94A7210E9490216CE2DD
:1058B00071E080E090E00E948E240E943D2220E86A
:1058C0004EE758E270E060E090E080E00E94A7219F
:1058D0000E9490216CE271E080E090E00E948E24B2
:1058E0000E943D2220E84CE754E270E060E090E046
:1058F00080E00E94A7210E9490216CE271E080E08C
:1059000090E00E948E240E943D2220E84AE750E267
:1059100070E060E090E080E00E94A7210E9490216A
:105920006CE271E080E090E00E948E240E943D22B3
:1059300020E848E75CE170E060E090E080E00E94F1
:10594000A7210E9490216CE271E080E090E00E942B
:105950008E240E943D2220E846E758E170E060E096
:1059600090E080E00E94A7210E9490216CE271E00B
:1059700080E090E00E948E240E943D2220E844E7CF
:1059800054E170E060E090E080E00E94A7210E9476
:1059900090216CE271E080E090E00E948E240E94F1
:1059A0003D2220E842E750E170E060E090E080E0D6
:1059B0000E94A7210E9490216CE271E080E090E0BB
:1059C0000E948E240E943D2220E840E75CE070E0C7
:1059D00060E090E080E00E94A7210E9490216CE2AC
:1059E00071E080E090E00E948E24809166019091A9
:1059F0006701019690936701809366010E943D22A2
:105A00000E94242F24E130E040E050E00E94922FD9
:105A10006B017C010FEFC01AD00AE00AF00A8DE397
:105A200091E00E94D32586E491E00E94D325409026
:105A3000660150906701052C000C660877084AE063
:105A4000C301B20177FE0DC06DE288E795E00E94C8
:105A50005E2366277727CB016419750986099709A4
:105A60004AE00E94E025C701B601772788279927D9
:105A70004AE00E94E0258EE491E00E94D325EFEFFA
:105A8000EC0DE43108F07DC0F0E0E75BF24D0C94E2
:105A9000F52FA92DC92DD82DE72DF62D052E142E65
:105AA000232E302E3F2E4E2E5B2E6A2E772E862EE4
:105AB000932EA02EAF2EBE2ECB2E3E983F9827CDF4
:105AC000112329F0C430D10511F42E9A2F9881E0CA
:105AD0000E94742100E128E548E156E0BE0184E11E
